:100000000C942A000C94DC040C940F050C9442050B
:100010000C943C000C943C000C943C000C943C0070
:100020000C943C000C943C000C943C000C943C0060
:100030000C943C000C943C000C943C000C943C0050
:100040000C943C000C943C000C943C000C943C0040
:100050000C943C0011241FBECFE5D8E0DEBFCDBF1D
:1000600010E0A0E6B0E001C01D92A736B107E1F7AD
:100070000E9491050C94C1050C940000DF93CF936E
:10008000CDB7DEB7EAE3F0E08FEF8083E7E3F0E09F
:100090008FEF8083E4E3F0E08FEF8083E1E3F0E033
:1000A0008BEF8083EBE3F0E01082E8E3F0E0108276
:1000B000E5E3F0E01082E2E3F0E084E08083CF91BA
:1000C000DF910895DF93CF93CDB7DEB72D970FB6AD
:1000D000F894DEBF0FBECDBF89836A834B838981CD
:1000E000282F30E03D872C878C859D8581309105B8
:1000F00009F44FC02C853D85223031052CF48C85C8
:100100009D85009771F0EBC02C853D85223031052F
:1001100009F477C08C859D858330910509F4A9C0C9
:10012000DEC08B81282F30E03B872A878A859B851C
:100130000097D1F02A853B852130310509F0CFC0E9
:10014000AAE3B0E0EAE3F0E08081482F8A81282F1B
:1001500030E081E090E0022E02C0880F991F0A94DF
:10016000E2F7842B8C93BBC0AAE3B0E0EAE3F0E0B3
:100170008081482F8A81282F30E081E090E0022E94
:1001800002C0880F991F0A94E2F7809584238C930C
:10019000A6C08B81282F30E03987288788859985EC
:1001A0000097D1F0288539852130310509F097C0B5
:1001B000A7E3B0E0E7E3F0E08081482F8A81282FB1
:1001C00030E081E090E0022E02C0880F991F0A946F
:1001D000E2F7842B8C9383C0A7E3B0E0E7E3F0E081
:1001E0008081482F8A81282F30E081E090E0022E24
:1001F00002C0880F991F0A94E2F7809584238C939C
:100200006EC08B81282F30E03F832E838E819F81AB
:100210000097D1F02E813F812130310509F05FC078
:10022000A4E3B0E0E4E3F0E08081482F8A81282F46
:1002300030E081E090E0022E02C0880F991F0A94FE
:10024000E2F7842B8C934BC0A4E3B0E0E4E3F0E04E
:100250008081482F8A81282F30E081E090E0022EB3
:1002600002C0880F991F0A94E2F7809584238C932B
:1002700036C08B81282F30E03D832C838C819D817B
:100280000097C9F02C813D812130310541F5A1E372
:10029000B0E0E1E3F0E08081482F8A81282F30E050
:1002A00081E090E0022E02C0880F991F0A94E2F7C5
:1002B000842B8C9314C0A1E3B0E0E1E3F0E08081F3
:1002C000482F8A81282F30E081E090E0022E02C082
:1002D000880F991F0A94E2F7809584238C932D96BA
:1002E0000FB6F894DEBF0FBECDBFCF91DF9108955A
:1002F000DF93CF93CDB7DEB72D970FB6F894DEBF5F
:100300000FBECDBF89836A834B838981282F30E05C
:100310003D872C878C859D858130910509F44FC0E0
:100320002C853D85223031052CF48C859D850097E8
:1003300071F0EBC02C853D852230310509F477C082
:100340008C859D858330910509F4A9C0DEC08B8121
:10035000282F30E03B872A878A859B850097D1F03C
:100360002A853B852130310509F0CFC0ABE3B0E0F1
:10037000EBE3F0E08081482F8A81282F30E081E094
:1003800090E0022E02C0880F991F0A94E2F7842B96
:100390008C93BBC0ABE3B0E0EBE3F0E08081482F8F
:1003A0008A81282F30E081E090E0022E02C0880F81
:1003B000991F0A94E2F7809584238C93A6C08B81C1
:1003C000282F30E039872887888599850097D1F0D4
:1003D000288539852130310509F097C0A8E3B0E0C0
:1003E000E8E3F0E08081482F8A81282F30E081E027
:1003F00090E0022E02C0880F991F0A94E2F7842B26
:100400008C9383C0A8E3B0E0E8E3F0E08081482F5C
:100410008A81282F30E081E090E0022E02C0880F10
:10042000991F0A94E2F7809584238C936EC08B8188
:10043000282F30E03F832E838E819F810097D1F05B
:100440002E813F812130310509F05FC0A5E3B0E086
:10045000E5E3F0E08081482F8A81282F30E081E0B9
:1004600090E0022E02C0880F991F0A94E2F7842BB5
:100470008C934BC0A5E3B0E0E5E3F0E08081482F2A
:100480008A81282F30E081E090E0022E02C0880FA0
:10049000991F0A94E2F7809584238C9336C08B8150
:1004A000282F30E03D832C838C819D810097C9F0FB
:1004B0002C813D812130310541F5A2E3B0E0E2E33A
:1004C000F0E08081482F8A81282F30E081E090E0A1
:1004D000022E02C0880F991F0A94E2F7842B8C9396
:1004E00014C0A2E3B0E0E2E3F0E08081482F8A810B
:1004F000282F30E081E090E0022E02C0880F991F83
:100500000A94E2F7809584238C932D960FB6F89485
:10051000DEBF0FBECDBFCF91DF910895DF93CF93A4
:1005200000D000D00F92CDB7DEB78A836B831982DB
:100530008A81282F30E03D832C834C815D814130BE
:10054000510541F18C819D818230910534F42C81DB
:100550003D812115310561F052C04C815D814230F1
:10056000510551F18C819D8183309105B9F147C0CE
:10057000E9E3F0E08081282F30E08B81882F90E044
:10058000A90102C0559547958A95E2F7CA01817085
:10059000898335C0E6E3F0E08081282F30E08B814D
:1005A000882F90E0A90102C0559547958A95E2F7FA
:1005B000CA018170898323C0E3E3F0E08081282FA2
:1005C00030E08B81882F90E0A90102C055954795B6
:1005D0008A95E2F7CA018170898311C0E0E3F0E0F7
:1005E0008081282F30E08B81882F90E0A90102C004
:1005F000559547958A95E2F7CA018170898389816B
:100600000F900F900F900F900F90CF91DF91089562
:10061000DF93CF9300D000D0CDB7DEB789836A8354
:100620008981282F30E03C832B838B819C81813012
:100630009105D1F02B813C81223031052CF48B8146
:100640009C81009761F01EC02B813C8122303105D6
:1006500081F08B819C818330910581F013C0EBE3A5
:10066000F0E08A8180830EC0E8E3F0E08A81808335
:1006700009C0E5E3F0E08A81808304C0E2E3F0E0B2
:100680008A8180830F900F900F900F90CF91DF9110
:100690000895DF93CF9300D000D0CDB7DEB7898324
:1006A0006A838981282F30E03C832B838B819C8156
:1006B00081309105D1F02B813C81223031052CF421
:1006C0008B819C81009761F01EC02B813C81223080
:1006D000310581F08B819C818330910581F013C0BD
:1006E000EAE3F0E08A8180830EC0E7E3F0E08A81EC
:1006F000808309C0E4E3F0E08A81808304C0E1E301
:10070000F0E08A8180830F900F900F900F90CF912F
:10071000DF910895DF93CF9300D000D000D0CDB704
:10072000DEB789836A838A81843008F05AC0898160
:10073000282F30E03E832D838D819E81813091056D
:10074000D1F02D813E812230310561F18D819E8174
:10075000009709F046C0A5E5B0E0E5E5F0E080814E
:100760008C7F8C93A5E5B0E0E5E5F0E090818A818F
:10077000892B8C9336C0A5E5B0E0E5E5F0E08081FB
:10078000837F8C93A5E5B0E0E5E5F0E08081282F3C
:100790008A81882F90E0880F991F880F991F822BDC
:1007A0008C931FC08A81282F30E03C832B838B8160
:1007B0009C818230910531F02B813C8123303105C1
:1007C00049F00FC0A4E5B0E0E4E5F0E080818F7B64
:1007D0008C9307C0A4E5B0E0E4E5F0E0808180649C
:1007E0008C9326960FB6F894DEBF0FBECDBFCF9187
:1007F000DF910895DF93CF9300D00F92CDB7DEB78E
:1008000089838981282F30E03B832A838A819B81D9
:100810008130910589F02A813B8122303105A1F098
:100820008A819B810097B9F4ABE5B0E0EBE5F0E09D
:10083000808180648C930FC0ABE5B0E0EBE5F0E025
:10084000808180688C9307C0ABE5B0E0EBE5F0E019
:10085000808180628C930F900F900F90CF91DF91E9
:100860000895DF93CF9300D00F92CDB7DEB7898381
:100870008981282F30E03B832A838A819B818130C4
:10088000910589F02A813B8122303105A1F08A81CE
:100890009B810097B9F4ABE5B0E0EBE5F0E0808137
:1008A0008F7B8C930FC0ABE5B0E0EBE5F0E080818F
:1008B0008F778C9307C0ABE5B0E0EBE5F0E080818B
:1008C0008F7D8C930F900F900F90CF91DF910895B3
:1008D000DF93CF9300D00F92CDB7DEB789838981A4
:1008E000282F30E03B832A838A819B8181309105C8
:1008F00089F02A813B8122303105A1F08A819B81D8
:100900000097B9F4AAE5B0E0EAE5F0E08081806400
:100910008C930FC0AAE5B0E0EAE5F0E08081806842
:100920008C9307C0AAE5B0E0EAE5F0E08081806240
:100930008C930F900F900F90CF91DF910895DF93DC
:10094000CF9300D000D00F92CDB7DEB79A838983C2
:100950006B8389819A81009739F18B81282F30E050
:100960003D832C838C819D818130910581F02C8188
:100970003D812230310591F08C819D810097A1F459
:1009800089819A8190936100809360000DC0898174
:100990009A81909363008093620006C089819A8156
:1009A00090936500809364000F900F900F900F90CC
:1009B0000F90CF91DF9108951F920F920FB60F9273
:1009C00011242F933F934F935F936F937F938F9354
:1009D0009F93AF93BF93EF93FF93DF93CF93CDB7E5
:1009E000DEB78091600090916100009729F0E0915E
:1009F0006000F09161000995CF91DF91FF91EF9137
:100A0000BF91AF919F918F917F916F915F914F9126
:100A10003F912F910F900FBE0F901F9018951F922E
:100A20000F920FB60F9211242F933F934F935F9322
:100A30006F937F938F939F93AF93BF93EF93FF93A6
:100A4000DF93CF93CDB7DEB78091620090916300C2
:100A5000009729F0E0916200F09163000995CF9131
:100A6000DF91FF91EF91BF91AF919F918F917F9116
:100A70006F915F914F913F912F910F900FBE0F900B
:100A80001F9018951F920F920FB60F9211242F935B
:100A90003F934F935F936F937F938F939F93AF9306
:100AA000BF93EF93FF93DF93CF93CDB7DEB78091E2
:100AB000640090916500009729F0E0916400F09146
:100AC00065000995CF91DF91FF91EF91BF91AF91B3
:100AD0009F918F917F916F915F914F913F912F9156
:100AE0000F900FBE0F901F901895DF93CF93CDB747
:100AF000DEB7AFE5B0E0EFE5F0E0808180688C9391
:100B0000CF91DF910895DF93CF93CDB7DEB7AFE5F7
:100B1000B0E0EFE5F0E080818F778C93CF91DF91AB
:100B20000895DF93CF93CDB7DEB70E943E000E94B9
:100B3000750586EA95E060E00E949F0480E062E02F
:100B40000E948A0380E00E943104FFCFDF93CF939D
:100B5000CDB7DEB780916600882349F480E060E07D
:100B600041E00E94780181E08093660007C080E048
:100B700060E040E00E94780110926600CF91DF9122
:060B80000895F894FFCF78
:00000001FF
