:100000000C942A000C943C000C943C000C943C0092
:100010000C943C000C943C000C943C000C943C0070
:100020000C943C000C943C000C9478050C942F0527
:100030000C943C000C943C000C943C000C943C0050
:100040000C943C000C943C000C943C000C943C0040
:100050000C943C0011241FBECFE5D8E0DEBFCDBF1D
:1000600010E0A0E6B0E001C01D92AA37B107E1F7A9
:100070000E9448060C94C1060C940000DF93CF93B5
:10008000CDB7DEB7EAE3F0E08FEF8083E7E3F0E09F
:100090008FEF8083E4E3F0E08FEF8083E1E3F0E033
:1000A0008FEF8083EBE3F0E01082E8E3F0E0108272
:1000B000E5E3F0E01082E2E3F0E01082CF91DF911F
:1000C0000895DF93CF93CDB7DEB72D970FB6F89491
:1000D000DEBF0FBECDBF89836A834B838981282F02
:1000E00030E03D872C878C859D858130910509F412
:1000F0004FC02C853D85223031052CF48C859D85A3
:10010000009771F0EBC02C853D852230310509F454
:1001100077C08C859D858330910509F4A9C0DEC028
:100120008B81282F30E03B872A878A859B85009723
:10013000D1F02A853B852130310509F0CFC0AAE3F3
:10014000B0E0EAE3F0E08081482F8A81282F30E098
:1001500081E090E0022E02C0880F991F0A94E2F716
:10016000842B8C93BBC0AAE3B0E0EAE3F0E080818B
:10017000482F8A81282F30E081E090E0022E02C0D3
:10018000880F991F0A94E2F7809584238C93A6C068
:100190008B81282F30E039872887888599850097BB
:1001A000D1F0288539852130310509F097C0A7E3C2
:1001B000B0E0E7E3F0E08081482F8A81282F30E02B
:1001C00081E090E0022E02C0880F991F0A94E2F7A6
:1001D000842B8C9383C0A7E3B0E0E7E3F0E0808159
:1001E000482F8A81282F30E081E090E0022E02C063
:1001F000880F991F0A94E2F7809584238C936EC030
:100200008B81282F30E03F832E838E819F81009742
:10021000D1F02E813F812130310509F05FC0A4E388
:10022000B0E0E4E3F0E08081482F8A81282F30E0BD
:1002300081E090E0022E02C0880F991F0A94E2F735
:10024000842B8C934BC0A4E3B0E0E4E3F0E0808126
:10025000482F8A81282F30E081E090E0022E02C0F2
:10026000880F991F0A94E2F7809584238C9336C0F7
:100270008B81282F30E03D832C838C819D810097DA
:10028000C9F02C813D812130310541F5A1E3B0E079
:10029000E1E3F0E08081482F8A81282F30E081E07F
:1002A00090E0022E02C0880F991F0A94E2F7842B77
:1002B0008C9314C0A1E3B0E0E1E3F0E08081482F2B
:1002C0008A81282F30E081E090E0022E02C0880F62
:1002D000991F0A94E2F7809584238C932D960FB68C
:1002E000F894DEBF0FBECDBFCF91DF910895DF93AD
:1002F000CF93CDB7DEB72D970FB6F894DEBF0FBE04
:10030000CDBF89836A834B838981282F30E03D8765
:100310002C878C859D858130910509F44FC02C85F3
:100320003D85223031052CF48C859D85009771F038
:10033000EBC02C853D852230310509F477C08C85D2
:100340009D858330910509F4A9C0DEC08B81282FDB
:1003500030E03B872A878A859B850097D1F02A85E4
:100360003B852130310509F0CFC0ABE3B0E0EBE3D2
:10037000F0E08081482F8A81282F30E081E090E0F2
:10038000022E02C0880F991F0A94E2F7842B8C93E7
:10039000BBC0ABE3B0E0EBE3F0E08081482F8A81A3
:1003A000282F30E081E090E0022E02C0880F991FD4
:1003B0000A94E2F7809584238C93A6C08B81282F22
:1003C00030E039872887888599850097D1F028857E
:1003D00039852130310509F097C0A8E3B0E0E8E3A2
:1003E000F0E08081482F8A81282F30E081E090E082
:1003F000022E02C0880F991F0A94E2F7842B8C9377
:1004000083C0A8E3B0E0E8E3F0E08081482F8A8170
:10041000282F30E081E090E0022E02C0880F991F63
:100420000A94E2F7809584238C936EC08B81282FE9
:1004300030E03F832E838E819F810097D1F02E8103
:100440003F812130310509F05FC0A5E3B0E0E5E36D
:10045000F0E08081482F8A81282F30E081E090E011
:10046000022E02C0880F991F0A94E2F7842B8C9306
:100470004BC0A5E3B0E0E5E3F0E08081482F8A813E
:10048000282F30E081E090E0022E02C0880F991FF3
:100490000A94E2F7809584238C9336C08B81282FB1
:1004A00030E03D832C838C819D810097C9F02C81A5
:1004B0003D812130310541F5A2E3B0E0E2E3F0E017
:1004C0008081482F8A81282F30E081E090E0022E41
:1004D00002C0880F991F0A94E2F7842B8C9314C0F2
:1004E000A2E3B0E0E2E3F0E08081482F8A81282F88
:1004F00030E081E090E0022E02C0880F991F0A943C
:10050000E2F7809584238C932D960FB6F894DEBF86
:100510000FBECDBFCF91DF910895DF93CF9300D071
:1005200000D00F92CDB7DEB78A836B8319828A81A0
:10053000282F30E03D832C834C815D814130510573
:1005400041F18C819D818230910534F42C813D8173
:100550002115310561F052C04C815D814230510559
:1005600051F18C819D8183309105B9F147C0E9E358
:10057000F0E08081282F30E08B81882F90E0A90166
:1005800002C0559547958A95E2F7CA018170898323
:1005900035C0E6E3F0E08081282F30E08B81882FA2
:1005A00090E0A90102C0559547958A95E2F7CA01E6
:1005B0008170898323C0E3E3F0E08081282F30E05D
:1005C0008B81882F90E0A90102C0559547958A95A7
:1005D000E2F7CA018170898311C0E0E3F0E0808115
:1005E000282F30E08B81882F90E0A90102C055951B
:1005F00047958A95E2F7CA018170898389810F90B6
:100600000F900F900F900F90CF91DF910895DF938F
:10061000CF9300D000D0CDB7DEB789836A838981BC
:10062000282F30E03C832B838B819C818130910586
:10063000D1F02B813C81223031052CF48B819C81BF
:10064000009761F01EC02B813C812230310581F082
:100650008B819C818330910581F013C0EBE3F0E046
:100660008A8180830EC0E8E3F0E08A81808309C03C
:10067000E5E3F0E08A81808304C0E2E3F0E08A8170
:1006800080830F900F900F900F90CF91DF9108957E
:10069000DF93CF9300D000D0CDB7DEB789836A83D4
:1006A0008981282F30E03C832B838B819C81813092
:1006B0009105D1F02B813C81223031052CF48B81C6
:1006C0009C81009761F01EC02B813C812230310556
:1006D00081F08B819C818330910581F013C0EAE326
:1006E000F0E08A8180830EC0E7E3F0E08A818083B6
:1006F00009C0E4E3F0E08A81808304C0E1E3F0E034
:100700008A8180830F900F900F900F90CF91DF918F
:100710000895DF93CF93CDB7DEB7AFE5B0E0EFE557
:10072000F0E0808180688C93CF91DF910895DF9312
:10073000CF93CDB7DEB7AFE5B0E0EFE5F0E0808175
:100740008F778C93CF91DF910895DF93CF93CDB7BF
:10075000DEB70E94BB0487E294E00E946205CF915D
:10076000DF910895DF93CF930F92CDB7DEB7198253
:1007700012C08981282F30E0C901880F991F820F8C
:10078000931F880F991FFC01E459FF4F11821082BB
:1007900089818F5F89838981843058F70F90CF9149
:1007A000DF910895DF93CF93CDB7DEB727970FB6CC
:1007B000F894DEBF0FBECDBF89837B836A835D83E0
:1007C0004C833F832E8389818330C0F58E819F8146
:1007D0000097A1F18981282F30E0C901880F991F66
:1007E000820F931F880F991FFC01E859FF4F8C81DE
:1007F0009D81918380838981282F30E0C901880FF2
:10080000991F820F931F0196880F991FFC01E859C9
:10081000FF4F8A819B81918380838981282F30E0DB
:10082000C901880F991F820F931F880F991FFC0120
:10083000E459FF4F8E819F819183808327960FB665
:10084000F894DEBF0FBECDBFCF91DF910895DF9347
:10085000CF930F92CDB7DEB7809160008F5F80930A
:10086000600080916000853009F081C010926000C6
:10087000198279C08981282F30E0C901880F991F1A
:10088000820F931F880F991FFC01E859FF4F808149
:100890009181009709F046C08981282F30E0C90175
:1008A000880F991F820F931F880F991FFC01E4592D
:1008B000FF4F80819181009709F452C08981282FD0
:1008C00030E0C901880F991F820F931F880F991F6D
:1008D000FC01E459FF4F0190F081E02D09958981D9
:1008E000482F50E08981282F30E0C901880F991FD7
:1008F000820F931F0196880F991FFC01E859FF4F43
:10090000808191819C0121503040CA01880F991F3C
:10091000840F951F880F991FFC01E859FF4F318301
:1009200020831EC08981282F30E0C901880F991FBC
:10093000820F931F880F991FFC01E859FF4F808198
:100940009181AC0141505040C901880F991F820F1D
:10095000931F880F991FFC01E859FF4F5183408373
:1009600089818F5F89838981833008F483CF0F90D9
:10097000CF91DF910895DF93CF93CDB7DEB7A3E595
:10098000B0E0E3E5F0E08081877F8C93A3E5B0E001
:10099000E3E5F0E0808180648C93A9E5B0E0E9E5CF
:1009A000F0E0808182608C93ECE5F0E087EC80835E
:1009B000A3E5B0E0E3E5F0E08081887C8C93A3E5DB
:1009C000B0E0E3E5F0E0808182608C93CF91DF912D
:1009D0000895DF93CF93CDB7DEB7A3E5B0E0E3E5AD
:1009E000F0E08081887F8C93A3E5B0E0E3E5F0E060
:1009F00080818C93CF91DF910895DF93CF930F92F5
:100A0000CDB7DEB78983E2E5F0E0898180830F907E
:100A1000CF91DF910895DF93CF930F92CDB7DEB7DB
:100A20008983ECE5F0E0898180830F90CF91DF919D
:100A30000895DF93CF9300D0CDB7DEB79A83898333
:100A400089819A81009731F089819A81909362001F
:100A5000809361000F900F90CF91DF9108951F92C6
:100A60000F920FB60F9211242F933F934F935F93E2
:100A70006F937F938F939F93AF93BF93EF93FF9366
:100A8000DF93CF93CDB7DEB7809161009091620084
:100A9000009729F0E0916100F09162000995CF91F3
:100AA000DF91FF91EF91BF91AF919F918F917F91D6
:100AB0006F915F914F913F912F910F900FBE0F90CB
:100AC0001F901895DF93CF9300D0CDB7DEB79A83F0
:100AD000898389819A81009731F089819A819093E5
:100AE0006400809363000F900F90CF91DF91089581
:100AF0001F920F920FB60F9211242F933F934F9393
:100B00005F936F937F938F939F93AF93BF93EF9375
:100B1000FF93DF93CF93CDB7DEB7809163009091C1
:100B20006400009729F0E0916300F091640009955A
:100B3000CF91DF91FF91EF91BF91AF919F918F91F5
:100B40007F916F915F914F913F912F910F900FBEC9
:100B50000F901F901895DF93CF93CDB7DEB7AFE41A
:100B6000B0E0EFE4F0E080818E7F8C93AFE4B0E002
:100B7000EFE4F0E0808182608C93AEE4B0E0EEE4DC
:100B8000F0E0808188608C93AEE4B0E0EEE4F0E0C9
:100B9000808180618C93AFE4B0E0EFE4F0E080818D
:100BA00083788C93AFE4B0E0EFE4F0E0808180687C
:100BB0008C93AFE4B0E0EFE4F0E0808180638C934D
:100BC000E6E4F0E08FE19EE491838083AEE4B0E060
:100BD000EEE4F0E0808188798C93AEE4B0E0EEE45E
:100BE000F0E0808182608C93CF91DF910895DF9354
:100BF000CF9300D0CDB7DEB79A838983EAE4F0E0E3
:100C000089819A81918380830F900F90CF91DF919A
:100C10000895DF93CF9300D0CDB7DEB79A83898351
:100C2000E8E4F0E089819A81918380830F900F90AE
:100C3000CF91DF910895DF93CF93CDB7DEB7A1E4D5
:100C4000B0E0E1E4F0E0808188608C93A1E4B0E062
:100C5000E1E4F0E0808187608C93CF91DF9108958B
:100C6000DF93CF93CDB7DEB7A1E4B0E0E1E4F0E0ED
:100C7000808188608C93A1E4B0E0E1E4F0E08081C1
:100C800080618C93E1E4F0E01082CF91DF910895D0
:100C9000DF93CF93CDB7DEB70E943E000E94890359
:100CA0000E94B20320E736E080E068EE73E040E0A7
:100CB00050E00E94D2032BE836E081E060ED77E05F
:100CC00040E050E00E94D20326EA36E082E068EB82
:100CD0007BE040E050E00E94D2030E94A503FFCFDA
:100CE000DF93CF93CDB7DEB780916500882349F4B9
:100CF00080E060E041E00E94770181E08093650040
:100D000007C080E060E040E00E947701109265003B
:100D1000CF91DF910895DF93CF93CDB7DEB7809168
:100D20006600882349F480E061E041E00E94770199
:100D300081E08093660007C080E061E040E00E94AF
:100D4000770110926600CF91DF910895DF93CF93E2
:100D5000CDB7DEB780916700882349F480E062E078
:100D600041E00E94770181E08093670007C080E046
:100D700062E040E00E94770110926700CF91DF911E
:060D80000895F894FFCF76
:00000001FF
